{
  "contractName": "PayByLocation",
  "abi": [
    {
      "inputs": [],
      "stateMutability": "nonpayable",
      "type": "constructor"
    },
    {
      "inputs": [],
      "name": "balance",
      "outputs": [
        {
          "internalType": "uint256",
          "name": "",
          "type": "uint256"
        }
      ],
      "stateMutability": "view",
      "type": "function",
      "constant": true
    },
    {
      "inputs": [
        {
          "internalType": "address",
          "name": "",
          "type": "address"
        }
      ],
      "name": "employees",
      "outputs": [
        {
          "internalType": "string",
          "name": "name",
          "type": "string"
        },
        {
          "internalType": "uint256",
          "name": "distance",
          "type": "uint256"
        },
        {
          "internalType": "int256",
          "name": "lat",
          "type": "int256"
        },
        {
          "internalType": "int256",
          "name": "lng",
          "type": "int256"
        },
        {
          "internalType": "bool",
          "name": "comply",
          "type": "bool"
        }
      ],
      "stateMutability": "view",
      "type": "function",
      "constant": true
    },
    {
      "inputs": [
        {
          "internalType": "address",
          "name": "_employeeAddress",
          "type": "address"
        },
        {
          "internalType": "string",
          "name": "_name",
          "type": "string"
        },
        {
          "internalType": "uint256",
          "name": "_allowedDistance",
          "type": "uint256"
        },
        {
          "internalType": "int256",
          "name": "_lat",
          "type": "int256"
        },
        {
          "internalType": "int256",
          "name": "_lng",
          "type": "int256"
        }
      ],
      "name": "addEmployee",
      "outputs": [],
      "stateMutability": "nonpayable",
      "type": "function"
    },
    {
      "inputs": [
        {
          "internalType": "address",
          "name": "empAddress",
          "type": "address"
        }
      ],
      "name": "getEmployee",
      "outputs": [
        {
          "components": [
            {
              "internalType": "string",
              "name": "name",
              "type": "string"
            },
            {
              "internalType": "uint256",
              "name": "distance",
              "type": "uint256"
            },
            {
              "internalType": "int256",
              "name": "lat",
              "type": "int256"
            },
            {
              "internalType": "int256",
              "name": "lng",
              "type": "int256"
            },
            {
              "internalType": "bool",
              "name": "comply",
              "type": "bool"
            }
          ],
          "internalType": "struct PayByLocation.Employee",
          "name": "",
          "type": "tuple"
        }
      ],
      "stateMutability": "view",
      "type": "function",
      "constant": true
    },
    {
      "inputs": [
        {
          "internalType": "int256",
          "name": "_lat",
          "type": "int256"
        },
        {
          "internalType": "int256",
          "name": "_lng",
          "type": "int256"
        }
      ],
      "name": "evaluate",
      "outputs": [],
      "stateMutability": "nonpayable",
      "type": "function"
    },
    {
      "inputs": [
        {
          "internalType": "int256",
          "name": "x",
          "type": "int256"
        }
      ],
      "name": "sqrt",
      "outputs": [
        {
          "internalType": "int256",
          "name": "y",
          "type": "int256"
        }
      ],
      "stateMutability": "pure",
      "type": "function",
      "constant": true
    },
    {
      "inputs": [],
      "name": "getSender",
      "outputs": [
        {
          "internalType": "address",
          "name": "",
          "type": "address"
        }
      ],
      "stateMutability": "view",
      "type": "function",
      "constant": true
    }
  ],
  "bytecode": "0x608060405234801561001057600080fd5b50683627e8f712373c000060008190555061122a806100306000396000f3fe608060405234801561001057600080fd5b506004361061007d5760003560e01c8063665df4601161005b578063665df460146100ec578063b69ef8a81461011c578063d06789471461013a578063f8bb49a11461016e5761007d565b80630b9bf0b11461008257806332648e091461009e5780635e01eb5a146100ce575b600080fd5b61009c6004803603810190610097919061084d565b61018a565b005b6100b860048036038101906100b391906108e4565b610257565b6040516100c59190610a3f565b60405180910390f35b6100d661037b565b6040516100e39190610a70565b60405180910390f35b61010660048036038101906101019190610a8b565b610383565b6040516101139190610ac7565b60405180910390f35b6101246103e0565b6040516101319190610af1565b60405180910390f35b610154600480360381019061014f91906108e4565b6103e6565b604051610165959493929190610b65565b60405180910390f35b61018860048036038101906101839190610bbf565b6104b1565b005b60006040518060a0016040528086815260200185815260200184815260200183815260200160011515815250905080600160008873ffffffffffffffffffffffffffffffffffffffff1673ffffffffffffffffffffffffffffffffffffffff168152602001908152602001600020600082015181600001908161020d9190610e0b565b5060208201518160010155604082015181600201556060820151816003015560808201518160040160006101000a81548160ff021916908315150217905550905050505050505050565b61025f6105f8565b600160008373ffffffffffffffffffffffffffffffffffffffff1673ffffffffffffffffffffffffffffffffffffffff1681526020019081526020016000206040518060a00160405290816000820180546102b990610c2e565b80601f01602080910402602001604051908101604052809291908181526020018280546102e590610c2e565b80156103325780601f1061030757610100808354040283529160200191610332565b820191906000526020600020905b81548152906001019060200180831161031557829003601f168201915b505050505081526020016001820154815260200160028201548152602001600382015481526020016004820160009054906101000a900460ff1615151515815250509050919050565b600033905090565b60008060026001846103959190610f0c565b61039f9190610f7f565b90508291505b818112156103da5780915060028182856103bf9190610f7f565b6103c99190610f0c565b6103d39190610f7f565b90506103a5565b50919050565b60005481565b600160205280600052604060002060009150905080600001805461040990610c2e565b80601f016020809104026020016040519081016040528092919081815260200182805461043590610c2e565b80156104825780601f1061045757610100808354040283529160200191610482565b820191906000526020600020905b81548152906001019060200180831161046557829003601f168201915b5050505050908060010154908060020154908060030154908060040160009054906101000a900460ff16905085565b600033905060006104c182610257565b90506104ce84848361057a565b81608001901515908115158152505080600160008473ffffffffffffffffffffffffffffffffffffffff1673ffffffffffffffffffffffffffffffffffffffff16815260200190815260200160002060008201518160000190816105329190610e0b565b5060208201518160010155604082015181600201556060820151816003015560808201518160040160006101000a81548160ff02191690831515021790555090505050505050565b6000806105918585856040015186606001516105a5565b905082602001518113159150509392505050565b6000806105ea600284876105b99190610fe9565b6105c39190611188565b600286896105d19190610fe9565b6105db9190611188565b6105e59190610f0c565b610383565b905080915050949350505050565b6040518060a00160405280606081526020016000815260200160008152602001600081526020016000151581525090565b6000604051905090565b600080fd5b600080fd5b600073ffffffffffffffffffffffffffffffffffffffff82169050919050565b60006106688261063d565b9050919050565b6106788161065d565b811461068357600080fd5b50565b6000813590506106958161066f565b92915050565b600080fd5b600080fd5b6000601f19601f8301169050919050565b7f4e487b7100000000000000000000000000000000000000000000000000000000600052604160045260246000fd5b6106ee826106a5565b810181811067ffffffffffffffff8211171561070d5761070c6106b6565b5b80604052505050565b6000610720610629565b905061072c82826106e5565b919050565b600067ffffffffffffffff82111561074c5761074b6106b6565b5b610755826106a5565b9050602081019050919050565b82818337600083830152505050565b600061078461077f84610731565b610716565b9050828152602081018484840111156107a05761079f6106a0565b5b6107ab848285610762565b509392505050565b600082601f8301126107c8576107c761069b565b5b81356107d8848260208601610771565b91505092915050565b6000819050919050565b6107f4816107e1565b81146107ff57600080fd5b50565b600081359050610811816107eb565b92915050565b6000819050919050565b61082a81610817565b811461083557600080fd5b50565b60008135905061084781610821565b92915050565b600080600080600060a0868803121561086957610868610633565b5b600061087788828901610686565b955050602086013567ffffffffffffffff81111561089857610897610638565b5b6108a4888289016107b3565b94505060406108b588828901610802565b93505060606108c688828901610838565b92505060806108d788828901610838565b9150509295509295909350565b6000602082840312156108fa576108f9610633565b5b600061090884828501610686565b91505092915050565b600081519050919050565b600082825260208201905092915050565b60005b8381101561094b578082015181840152602081019050610930565b60008484015250505050565b600061096282610911565b61096c818561091c565b935061097c81856020860161092d565b610985816106a5565b840191505092915050565b610999816107e1565b82525050565b6109a881610817565b82525050565b60008115159050919050565b6109c3816109ae565b82525050565b600060a08301600083015184820360008601526109e68282610957565b91505060208301516109fb6020860182610990565b506040830151610a0e604086018261099f565b506060830151610a21606086018261099f565b506080830151610a3460808601826109ba565b508091505092915050565b60006020820190508181036000830152610a5981846109c9565b905092915050565b610a6a8161065d565b82525050565b6000602082019050610a856000830184610a61565b92915050565b600060208284031215610aa157610aa0610633565b5b6000610aaf84828501610838565b91505092915050565b610ac181610817565b82525050565b6000602082019050610adc6000830184610ab8565b92915050565b610aeb816107e1565b82525050565b6000602082019050610b066000830184610ae2565b92915050565b600082825260208201905092915050565b6000610b2882610911565b610b328185610b0c565b9350610b4281856020860161092d565b610b4b816106a5565b840191505092915050565b610b5f816109ae565b82525050565b600060a0820190508181036000830152610b7f8188610b1d565b9050610b8e6020830187610ae2565b610b9b6040830186610ab8565b610ba86060830185610ab8565b610bb56080830184610b56565b9695505050505050565b60008060408385031215610bd657610bd5610633565b5b6000610be485828601610838565b9250506020610bf585828601610838565b9150509250929050565b7f4e487b7100000000000000000000000000000000000000000000000000000000600052602260045260246000fd5b60006002820490506001821680610c4657607f821691505b602082108103610c5957610c58610bff565b5b50919050565b60008190508160005260206000209050919050565b60006020601f8301049050919050565b600082821b905092915050565b600060088302610cc17fffffffffffffffffffffffffffffffffffffffffffffffffffffffffffffffff82610c84565b610ccb8683610c84565b95508019841693508086168417925050509392505050565b6000819050919050565b6000610d08610d03610cfe846107e1565b610ce3565b6107e1565b9050919050565b6000819050919050565b610d2283610ced565b610d36610d2e82610d0f565b848454610c91565b825550505050565b600090565b610d4b610d3e565b610d56818484610d19565b505050565b5b81811015610d7a57610d6f600082610d43565b600181019050610d5c565b5050565b601f821115610dbf57610d9081610c5f565b610d9984610c74565b81016020851015610da8578190505b610dbc610db485610c74565b830182610d5b565b50505b505050565b600082821c905092915050565b6000610de260001984600802610dc4565b1980831691505092915050565b6000610dfb8383610dd1565b9150826002028217905092915050565b610e1482610911565b67ffffffffffffffff811115610e2d57610e2c6106b6565b5b610e378254610c2e565b610e42828285610d7e565b600060209050601f831160018114610e755760008415610e63578287015190505b610e6d8582610def565b865550610ed5565b601f198416610e8386610c5f565b60005b82811015610eab57848901518255600182019150602085019450602081019050610e86565b86831015610ec85784890151610ec4601f891682610dd1565b8355505b6001600288020188555050505b505050505050565b7f4e487b7100000000000000000000000000000000000000000000000000000000600052601160045260246000fd5b6000610f1782610817565b9150610f2283610817565b925082820190508281121560008312168382126000841215161715610f4a57610f49610edd565b5b92915050565b7f4e487b7100000000000000000000000000000000000000000000000000000000600052601260045260246000fd5b6000610f8a82610817565b9150610f9583610817565b925082610fa557610fa4610f50565b5b600160000383147f800000000000000000000000000000000000000000000000000000000000000083141615610fde57610fdd610edd565b5b828205905092915050565b6000610ff482610817565b9150610fff83610817565b925082820390508181126000841216828213600085121516171561102657611025610edd565b5b92915050565b60008160011c9050919050565b6000808291508390505b60018511156110835780860481111561105f5761105e610edd565b5b600185161561106e5780820291505b808102905061107c8561102c565b9450611043565b94509492505050565b600082600081146110a457600181146110ae576110b7565b6001915050611173565b82915050611173565b50816110c65760009050611173565b6001905060008213600181146110e357600081146110fb5761110f565b8286048311156110f6576110f5610edd565b5b61110f565b82860583121561110e5761110d610edd565b5b5b50600183161561111d578190505b818202915061112b8361102c565b925061113985848484611039565b92509050818504811160008213161561115557611154610edd565b5b818405811260008212161561116d5761116c610edd565b5b81810290505b949350505050565b600060ff82169050919050565b600061119382610817565b915061119e8361117b565b92506111ec7f7fffffffffffffffffffffffffffffffffffffffffffffffffffffffffffffff7f8000000000000000000000000000000000000000000000000000000000000000858561108c565b90509291505056fea2646970667358221220edb62610be8ab693292cd5c11f8f1336f3d500b6dec8b5fb256598fca21c1ac264736f6c63430008110033",
  "immutableReferences": {},
  "source": "// SPDX-License-Identifier: MIT\r\npragma solidity >=0.4.22 <0.9.0;\r\n\r\ncontract PayByLocation {\r\n    uint public balance;\r\n\r\nconstructor (){\r\n    balance = 999000000000000000000;\r\n}\r\n\r\n        struct Employee {\r\n        string name;\r\n        uint256 distance;\r\n        int256 lat;\r\n        int256 lng;\r\n        bool comply;\r\n    }\r\n    \r\n    mapping(address => Employee) public employees;\r\n\r\n    function addEmployee(\r\n        address _employeeAddress,\r\n        string memory _name,\r\n        uint256 _allowedDistance,\r\n        int256 _lat,\r\n        int256 _lng\r\n    ) public  {\r\n        Employee memory employee = Employee(\r\n            _name,\r\n            _allowedDistance,\r\n            _lat,\r\n            _lng,\r\n            true\r\n        );\r\n        employees[_employeeAddress] = employee;\r\n\r\n    }\r\n\r\n    function getEmployee(address empAddress)\r\n        public\r\n        view\r\n        returns (Employee memory)\r\n    {\r\n        return (employees[empAddress]);\r\n    }\r\n\r\n    function evaluate(int256 _lat, int256 _lng) public   {\r\n        //refrence distance is lat and lng from the constructors\r\n        address empAddr = msg.sender;\r\n        Employee memory employee = getEmployee((empAddr));\r\n        employee.comply = isComplied(_lat, _lng, employee);\r\n        employees[empAddr] = employee;\r\n\r\n    }\r\n\r\n    function getDistance(\r\n        int256 _lat,\r\n        int256 _lng,\r\n        int256 _lat1,\r\n        int256 _lng1\r\n    ) private pure returns (int256 ) {\r\n        int256 dist = sqrt(((_lat - _lat1)**2) + ((_lng - _lng1)**2));\r\n        return dist;\r\n        // return 6;\r\n    }\r\n\r\n    function sqrt(int256 x) public pure returns (int256 y) {\r\n        int256 z = (x + 1) / 2;\r\n        y = x;\r\n        while (z <(y)) {\r\n            y = z;\r\n            z = (x / z + z) / 2;\r\n        }\r\n        return y;\r\n    }\r\n\r\n    function isComplied(\r\n        int256 _lat,\r\n        int256 _lng,\r\n        Employee memory _employee\r\n    ) private pure returns (bool) {\r\n        int256 distance = getDistance(\r\n            _lat,\r\n            _lng,\r\n            _employee.lat,\r\n            _employee.lng\r\n        );\r\n        return distance <= int(_employee.distance);\r\n    }\r\n\r\n    function getSender() public view returns (address) {\r\n        return msg.sender;\r\n    }\r\n    \r\n}\r\n",
  "sourcePath": "D:\\Projects\\Personal\\python\\10 Academy\\Week 10\\contracts\\PayByLocation.sol",
  "compiler": {
    "name": "solc",
    "version": "0.8.17+commit.8df45f5f.Emscripten.clang"
  },
  "schemaVersion": "3.4.10",
  "updatedAt": "2022-10-28T17:57:53.937Z",
  "networkType": "ethereum",
  "devdoc": {
    "kind": "dev",
    "methods": {},
    "version": 1
  },
  "userdoc": {
    "kind": "user",
    "methods": {},
    "version": 1
  }
}