{
  "contractName": "PayByLocation",
  "abi": [
    {
      "inputs": [
        {
          "internalType": "address",
          "name": "",
          "type": "address"
        }
      ],
      "name": "employees",
      "outputs": [
        {
          "internalType": "string",
          "name": "name",
          "type": "string"
        },
        {
          "internalType": "uint256",
          "name": "distance",
          "type": "uint256"
        },
        {
          "internalType": "uint256",
          "name": "registeredAt",
          "type": "uint256"
        },
        {
          "internalType": "uint256",
          "name": "contractEnd",
          "type": "uint256"
        },
        {
          "internalType": "int256",
          "name": "lat",
          "type": "int256"
        },
        {
          "internalType": "int256",
          "name": "lng",
          "type": "int256"
        },
        {
          "internalType": "bool",
          "name": "comply",
          "type": "bool"
        }
      ],
      "stateMutability": "view",
      "type": "function",
      "constant": true
    },
    {
      "inputs": [
        {
          "internalType": "uint256",
          "name": "",
          "type": "uint256"
        }
      ],
      "name": "employeesAddress",
      "outputs": [
        {
          "internalType": "address",
          "name": "",
          "type": "address"
        }
      ],
      "stateMutability": "view",
      "type": "function",
      "constant": true
    },
    {
      "inputs": [
        {
          "internalType": "address",
          "name": "_employeeAddress",
          "type": "address"
        },
        {
          "internalType": "string",
          "name": "_name",
          "type": "string"
        },
        {
          "internalType": "uint256",
          "name": "_allowedDistance",
          "type": "uint256"
        },
        {
          "internalType": "uint256",
          "name": "_contractEnd",
          "type": "uint256"
        },
        {
          "internalType": "int256",
          "name": "_lat",
          "type": "int256"
        },
        {
          "internalType": "int256",
          "name": "_lng",
          "type": "int256"
        }
      ],
      "name": "addEmployee",
      "outputs": [],
      "stateMutability": "nonpayable",
      "type": "function"
    },
    {
      "inputs": [
        {
          "internalType": "uint256",
          "name": "index",
          "type": "uint256"
        }
      ],
      "name": "getEmployee",
      "outputs": [
        {
          "components": [
            {
              "internalType": "string",
              "name": "name",
              "type": "string"
            },
            {
              "internalType": "uint256",
              "name": "distance",
              "type": "uint256"
            },
            {
              "internalType": "uint256",
              "name": "registeredAt",
              "type": "uint256"
            },
            {
              "internalType": "uint256",
              "name": "contractEnd",
              "type": "uint256"
            },
            {
              "internalType": "int256",
              "name": "lat",
              "type": "int256"
            },
            {
              "internalType": "int256",
              "name": "lng",
              "type": "int256"
            },
            {
              "internalType": "bool",
              "name": "comply",
              "type": "bool"
            }
          ],
          "internalType": "struct PayByLocation.Employee",
          "name": "",
          "type": "tuple"
        }
      ],
      "stateMutability": "view",
      "type": "function",
      "constant": true
    },
    {
      "inputs": [],
      "name": "getEmployees",
      "outputs": [
        {
          "components": [
            {
              "internalType": "string",
              "name": "name",
              "type": "string"
            },
            {
              "internalType": "uint256",
              "name": "distance",
              "type": "uint256"
            },
            {
              "internalType": "uint256",
              "name": "registeredAt",
              "type": "uint256"
            },
            {
              "internalType": "uint256",
              "name": "contractEnd",
              "type": "uint256"
            },
            {
              "internalType": "int256",
              "name": "lat",
              "type": "int256"
            },
            {
              "internalType": "int256",
              "name": "lng",
              "type": "int256"
            },
            {
              "internalType": "bool",
              "name": "comply",
              "type": "bool"
            }
          ],
          "internalType": "struct PayByLocation.Employee[]",
          "name": "",
          "type": "tuple[]"
        }
      ],
      "stateMutability": "view",
      "type": "function",
      "constant": true
    },
    {
      "inputs": [
        {
          "internalType": "int256",
          "name": "_lat",
          "type": "int256"
        },
        {
          "internalType": "int256",
          "name": "_lng",
          "type": "int256"
        }
      ],
      "name": "evaluate",
      "outputs": [],
      "stateMutability": "nonpayable",
      "type": "function"
    },
    {
      "inputs": [],
      "name": "getSender",
      "outputs": [
        {
          "internalType": "address",
          "name": "",
          "type": "address"
        }
      ],
      "stateMutability": "view",
      "type": "function",
      "constant": true
    }
  ],
  "bytecode": "0x608060405234801561001057600080fd5b5061189e806100206000396000f3fe608060405234801561001057600080fd5b506004361061007d5760003560e01c80635e01eb5a1161005b5780635e01eb5a146100ec578063bca9a5c51461010a578063d06789471461013a578063f8bb49a1146101705761007d565b80631abb590b146100825780631f35dba71461009e5780634abefa36146100ce575b600080fd5b61009c60048036038101906100979190610cac565b61018c565b005b6100b860048036038101906100b39190610d55565b6102f2565b6040516100c59190610d91565b60405180910390f35b6100d6610325565b6040516100e39190610fc2565b60405180910390f35b6100f4610522565b6040516101019190610d91565b60405180910390f35b610124600480360381019061011f9190610d55565b61052a565b6040516101319190611080565b60405180910390f35b610154600480360381019061014f91906110a2565b610694565b6040516101679796959493929190611146565b60405180910390f35b61018a600480360381019061018591906111bc565b61076b565b005b6000610196610966565b905060006040518060e00160405280888152602001878152602001838152602001868152602001858152602001848152602001600115158152509050806000808a73ffffffffffffffffffffffffffffffffffffffff1673ffffffffffffffffffffffffffffffffffffffff16815260200190815260200160002060008201518160000190816102269190611408565b506020820151816001015560408201518160020155606082015181600301556080820151816004015560a0820151816005015560c08201518160060160006101000a81548160ff0219169083151502179055509050508760016000600254815260200190815260200160002060006101000a81548173ffffffffffffffffffffffffffffffffffffffff021916908373ffffffffffffffffffffffffffffffffffffffff160217905550600260008154809291906102e390611509565b91905055505050505050505050565b60016020528060005260406000206000915054906101000a900473ffffffffffffffffffffffffffffffffffffffff1681565b6060600060025467ffffffffffffffff81111561034557610344610b15565b5b60405190808252806020026020018201604052801561037e57816020015b61036b610a49565b8152602001906001900390816103635790505b50905060005b60025481101561051a576000806001600084815260200190815260200160002060009054906101000a900473ffffffffffffffffffffffffffffffffffffffff1673ffffffffffffffffffffffffffffffffffffffff1673ffffffffffffffffffffffffffffffffffffffff1681526020019081526020016000206040518060e001604052908160008201805461041a9061122b565b80601f01602080910402602001604051908101604052809291908181526020018280546104469061122b565b80156104935780601f1061046857610100808354040283529160200191610493565b820191906000526020600020905b81548152906001019060200180831161047657829003601f168201915b5050505050815260200160018201548152602001600282015481526020016003820154815260200160048201548152602001600582015481526020016006820160009054906101000a900460ff1615151515815250508282815181106104fc576104fb611551565b5b6020026020010181905250808061051290611509565b915050610384565b508091505090565b600033905090565b610532610a49565b6000806001600085815260200190815260200160002060009054906101000a900473ffffffffffffffffffffffffffffffffffffffff1673ffffffffffffffffffffffffffffffffffffffff1673ffffffffffffffffffffffffffffffffffffffff1681526020019081526020016000206040518060e00160405290816000820180546105be9061122b565b80601f01602080910402602001604051908101604052809291908181526020018280546105ea9061122b565b80156106375780601f1061060c57610100808354040283529160200191610637565b820191906000526020600020905b81548152906001019060200180831161061a57829003601f168201915b5050505050815260200160018201548152602001600282015481526020016003820154815260200160048201548152602001600582015481526020016006820160009054906101000a900460ff1615151515815250509050919050565b60006020528060005260406000206000915090508060000180546106b79061122b565b80601f01602080910402602001604051908101604052809291908181526020018280546106e39061122b565b80156107305780601f1061070557610100808354040283529160200191610730565b820191906000526020600020905b81548152906001019060200180831161071357829003601f168201915b5050505050908060010154908060020154908060030154908060040154908060050154908060060160009054906101000a900460ff16905087565b600033905060008060008373ffffffffffffffffffffffffffffffffffffffff1673ffffffffffffffffffffffffffffffffffffffff1681526020019081526020016000206040518060e00160405290816000820180546107cb9061122b565b80601f01602080910402602001604051908101604052809291908181526020018280546107f79061122b565b80156108445780601f1061081957610100808354040283529160200191610844565b820191906000526020600020905b81548152906001019060200180831161082757829003601f168201915b5050505050815260200160018201548152602001600282015481526020016003820154815260200160048201548152602001600582015481526020016006820160009054906101000a900460ff16151515158152505090506108a784848361096e565b8160c0019015159081151581525050806000808473ffffffffffffffffffffffffffffffffffffffff1673ffffffffffffffffffffffffffffffffffffffff168152602001908152602001600020600082015181600001908161090a9190611408565b506020820151816001015560408201518160020155606082015181600301556080820151816004015560a0820151816005015560c08201518160060160006101000a81548160ff02191690831515021790555090505050505050565b600042905090565b600080610985858585608001518660a00151610999565b905082602001518113159150509392505050565b6000806109de600284876109ad9190611580565b6109b7919061171f565b600286896109c59190611580565b6109cf919061171f565b6109d9919061178b565b6109ec565b905080915050949350505050565b60008060026001846109fe919061178b565b610a0891906117fe565b90508291505b81811215610a43578091506002818285610a2891906117fe565b610a32919061178b565b610a3c91906117fe565b9050610a0e565b50919050565b6040518060e001604052806060815260200160008152602001600081526020016000815260200160008152602001600081526020016000151581525090565b6000604051905090565b600080fd5b600080fd5b600073ffffffffffffffffffffffffffffffffffffffff82169050919050565b6000610ac782610a9c565b9050919050565b610ad781610abc565b8114610ae257600080fd5b50565b600081359050610af481610ace565b92915050565b600080fd5b600080fd5b6000601f19601f8301169050919050565b7f4e487b7100000000000000000000000000000000000000000000000000000000600052604160045260246000fd5b610b4d82610b04565b810181811067ffffffffffffffff82111715610b6c57610b6b610b15565b5b80604052505050565b6000610b7f610a88565b9050610b8b8282610b44565b919050565b600067ffffffffffffffff821115610bab57610baa610b15565b5b610bb482610b04565b9050602081019050919050565b82818337600083830152505050565b6000610be3610bde84610b90565b610b75565b905082815260208101848484011115610bff57610bfe610aff565b5b610c0a848285610bc1565b509392505050565b600082601f830112610c2757610c26610afa565b5b8135610c37848260208601610bd0565b91505092915050565b6000819050919050565b610c5381610c40565b8114610c5e57600080fd5b50565b600081359050610c7081610c4a565b92915050565b6000819050919050565b610c8981610c76565b8114610c9457600080fd5b50565b600081359050610ca681610c80565b92915050565b60008060008060008060c08789031215610cc957610cc8610a92565b5b6000610cd789828a01610ae5565b965050602087013567ffffffffffffffff811115610cf857610cf7610a97565b5b610d0489828a01610c12565b9550506040610d1589828a01610c61565b9450506060610d2689828a01610c61565b9350506080610d3789828a01610c97565b92505060a0610d4889828a01610c97565b9150509295509295509295565b600060208284031215610d6b57610d6a610a92565b5b6000610d7984828501610c61565b91505092915050565b610d8b81610abc565b82525050565b6000602082019050610da66000830184610d82565b92915050565b600081519050919050565b600082825260208201905092915050565b6000819050602082019050919050565b600081519050919050565b600082825260208201905092915050565b60005b83811015610e12578082015181840152602081019050610df7565b60008484015250505050565b6000610e2982610dd8565b610e338185610de3565b9350610e43818560208601610df4565b610e4c81610b04565b840191505092915050565b610e6081610c40565b82525050565b610e6f81610c76565b82525050565b60008115159050919050565b610e8a81610e75565b82525050565b600060e0830160008301518482036000860152610ead8282610e1e565b9150506020830151610ec26020860182610e57565b506040830151610ed56040860182610e57565b506060830151610ee86060860182610e57565b506080830151610efb6080860182610e66565b5060a0830151610f0e60a0860182610e66565b5060c0830151610f2160c0860182610e81565b508091505092915050565b6000610f388383610e90565b905092915050565b6000602082019050919050565b6000610f5882610dac565b610f628185610db7565b935083602082028501610f7485610dc8565b8060005b85811015610fb05784840389528151610f918582610f2c565b9450610f9c83610f40565b925060208a01995050600181019050610f78565b50829750879550505050505092915050565b60006020820190508181036000830152610fdc8184610f4d565b905092915050565b600060e08301600083015184820360008601526110018282610e1e565b91505060208301516110166020860182610e57565b5060408301516110296040860182610e57565b50606083015161103c6060860182610e57565b50608083015161104f6080860182610e66565b5060a083015161106260a0860182610e66565b5060c083015161107560c0860182610e81565b508091505092915050565b6000602082019050818103600083015261109a8184610fe4565b905092915050565b6000602082840312156110b8576110b7610a92565b5b60006110c684828501610ae5565b91505092915050565b600082825260208201905092915050565b60006110eb82610dd8565b6110f581856110cf565b9350611105818560208601610df4565b61110e81610b04565b840191505092915050565b61112281610c40565b82525050565b61113181610c76565b82525050565b61114081610e75565b82525050565b600060e0820190508181036000830152611160818a6110e0565b905061116f6020830189611119565b61117c6040830188611119565b6111896060830187611119565b6111966080830186611128565b6111a360a0830185611128565b6111b060c0830184611137565b98975050505050505050565b600080604083850312156111d3576111d2610a92565b5b60006111e185828601610c97565b92505060206111f285828601610c97565b9150509250929050565b7f4e487b7100000000000000000000000000000000000000000000000000000000600052602260045260246000fd5b6000600282049050600182168061124357607f821691505b602082108103611256576112556111fc565b5b50919050565b60008190508160005260206000209050919050565b60006020601f8301049050919050565b600082821b905092915050565b6000600883026112be7fffffffffffffffffffffffffffffffffffffffffffffffffffffffffffffffff82611281565b6112c88683611281565b95508019841693508086168417925050509392505050565b6000819050919050565b60006113056113006112fb84610c40565b6112e0565b610c40565b9050919050565b6000819050919050565b61131f836112ea565b61133361132b8261130c565b84845461128e565b825550505050565b600090565b61134861133b565b611353818484611316565b505050565b5b818110156113775761136c600082611340565b600181019050611359565b5050565b601f8211156113bc5761138d8161125c565b61139684611271565b810160208510156113a5578190505b6113b96113b185611271565b830182611358565b50505b505050565b600082821c905092915050565b60006113df600019846008026113c1565b1980831691505092915050565b60006113f883836113ce565b9150826002028217905092915050565b61141182610dd8565b67ffffffffffffffff81111561142a57611429610b15565b5b611434825461122b565b61143f82828561137b565b600060209050601f8311600181146114725760008415611460578287015190505b61146a85826113ec565b8655506114d2565b601f1984166114808661125c565b60005b828110156114a857848901518255600182019150602085019450602081019050611483565b868310156114c557848901516114c1601f8916826113ce565b8355505b6001600288020188555050505b505050505050565b7f4e487b7100000000000000000000000000000000000000000000000000000000600052601160045260246000fd5b600061151482610c40565b91507fffffffffffffffffffffffffffffffffffffffffffffffffffffffffffffffff8203611546576115456114da565b5b600182019050919050565b7f4e487b7100000000000000000000000000000000000000000000000000000000600052603260045260246000fd5b600061158b82610c76565b915061159683610c76565b92508282039050818112600084121682821360008512151617156115bd576115bc6114da565b5b92915050565b60008160011c9050919050565b6000808291508390505b600185111561161a578086048111156115f6576115f56114da565b5b60018516156116055780820291505b8081029050611613856115c3565b94506115da565b94509492505050565b6000826000811461163b57600181146116455761164e565b600191505061170a565b8291505061170a565b508161165d576000905061170a565b60019050600082136001811461167a5760008114611692576116a6565b82860483111561168d5761168c6114da565b5b6116a6565b8286058312156116a5576116a46114da565b5b5b5060018316156116b4578190505b81820291506116c2836115c3565b92506116d0858484846115d0565b9250905081850481116000821316156116ec576116eb6114da565b5b8184058112600082121615611704576117036114da565b5b81810290505b949350505050565b600060ff82169050919050565b600061172a82610c76565b915061173583611712565b92506117837f7fffffffffffffffffffffffffffffffffffffffffffffffffffffffffffffff7f80000000000000000000000000000000000000000000000000000000000000008585611623565b905092915050565b600061179682610c76565b91506117a183610c76565b9250828201905082811215600083121683821260008412151617156117c9576117c86114da565b5b92915050565b7f4e487b7100000000000000000000000000000000000000000000000000000000600052601260045260246000fd5b600061180982610c76565b915061181483610c76565b925082611824576118236117cf565b5b600160000383147f80000000000000000000000000000000000000000000000000000000000000008314161561185d5761185c6114da565b5b82820590509291505056fea2646970667358221220435aa65e133e9a8c7caff9abea884862ab05d23f9e6c543f5c4f6d2bbed09ca364736f6c63430008110033",
  "immutableReferences": {},
  "source": "// SPDX-License-Identifier: MIT\r\npragma solidity >=0.4.22 <0.9.0;\r\n\r\ncontract PayByLocation {\r\n \r\n        struct Employee {\r\n        string name;\r\n        uint256 distance;\r\n        uint256 registeredAt;\r\n        uint256 contractEnd;\r\n        int256 lat;\r\n        int256 lng;\r\n        bool comply;\r\n    }\r\n    \r\n    mapping(address => Employee) public employees;\r\n    mapping(uint => address) public employeesAddress;\r\n    uint employeeCount;\r\n\r\n    function addEmployee(\r\n        address _employeeAddress,\r\n        string memory _name,\r\n        uint256 _allowedDistance,\r\n        uint256 _contractEnd,\r\n        int256 _lat,\r\n        int256 _lng\r\n    ) public  {\r\n        uint256 time = timeteller();\r\n        Employee memory employee = Employee(\r\n            _name,\r\n            _allowedDistance,\r\n            time,\r\n            _contractEnd,\r\n            _lat,\r\n            _lng,\r\n            true\r\n        );\r\n        employees[_employeeAddress] = employee;\r\n        employeesAddress[employeeCount] = _employeeAddress;\r\n        employeeCount++;\r\n\r\n    }\r\n\r\n    function getEmployee(uint index)\r\n        public\r\n        view\r\n        returns (Employee memory)\r\n    {\r\n        return (employees[employeesAddress[index]]);\r\n    }\r\n\r\n    function getEmployees()\r\n        public\r\n        view\r\n        returns (Employee[] memory)\r\n    {\r\n\r\n        Employee[] memory ret = new Employee[](employeeCount);\r\n        for (uint i = 0; i < employeeCount; i++) {\r\n            ret[i] = employees[employeesAddress[i]];\r\n        }\r\n        return ret;\r\n    \r\n    }\r\n    \r\n    function evaluate(int256 _lat, int256 _lng) public   {\r\n        //refrence distance is lat and lng from the constructors\r\n        address empAddr = msg.sender;\r\n        Employee memory employee = employees[empAddr];\r\n        employee.comply = isComplied(_lat, _lng, employee);\r\n        employees[empAddr] = employee;\r\n\r\n    }\r\n\r\n    function getDistance(\r\n        int256 _lat,\r\n        int256 _lng,\r\n        int256 _lat1,\r\n        int256 _lng1\r\n    ) private pure returns (int256 ) {\r\n        int256 dist = sqrt(((_lat - _lat1)**2) + ((_lng - _lng1)**2));\r\n        return dist;\r\n        // return 6;\r\n    }\r\n\r\n    function sqrt(int256 x) private pure returns (int256 y) {\r\n        int256 z = (x + 1) / 2;\r\n        y = x;\r\n        while (z <(y)) {\r\n            y = z;\r\n            z = (x / z + z) / 2;\r\n        }\r\n        return y;\r\n    }\r\n\r\n    function isComplied(\r\n        int256 _lat,\r\n        int256 _lng,\r\n        Employee memory _employee\r\n    ) private pure returns (bool) {\r\n        int256 distance = getDistance(\r\n            _lat,\r\n            _lng,\r\n            _employee.lat,\r\n            _employee.lng\r\n        );\r\n        return distance <= int(_employee.distance);\r\n    }\r\n\r\n    function getSender() public view returns (address) {\r\n        return msg.sender;\r\n    }\r\n\r\n    function timeteller() private view returns(uint){\r\n     return block.timestamp;\r\n }\r\n    \r\n}\r\n",
  "sourcePath": "D:\\Projects\\Personal\\python\\10 Academy\\Week 10\\contracts\\PayByLocation.sol",
  "compiler": {
    "name": "solc",
    "version": "0.8.17+commit.8df45f5f.Emscripten.clang"
  },
  "schemaVersion": "3.4.10",
  "updatedAt": "2022-10-29T09:58:57.278Z",
  "networkType": "ethereum",
  "devdoc": {
    "kind": "dev",
    "methods": {},
    "version": 1
  },
  "userdoc": {
    "kind": "user",
    "methods": {},
    "version": 1
  }
}