{
  "contractName": "PayByLocation",
  "abi": [
    {
      "inputs": [
        {
          "internalType": "address",
          "name": "",
          "type": "address"
        }
      ],
      "name": "employees",
      "outputs": [
        {
          "internalType": "string",
          "name": "name",
          "type": "string"
        },
        {
          "internalType": "uint256",
          "name": "distance",
          "type": "uint256"
        },
        {
          "internalType": "uint256",
          "name": "registeredAt",
          "type": "uint256"
        },
        {
          "internalType": "uint256",
          "name": "contractEnd",
          "type": "uint256"
        },
        {
          "internalType": "int256",
          "name": "lat",
          "type": "int256"
        },
        {
          "internalType": "int256",
          "name": "lng",
          "type": "int256"
        },
        {
          "internalType": "bool",
          "name": "comply",
          "type": "bool"
        },
        {
          "internalType": "bool",
          "name": "paid",
          "type": "bool"
        }
      ],
      "stateMutability": "view",
      "type": "function",
      "constant": true
    },
    {
      "inputs": [
        {
          "internalType": "uint256",
          "name": "",
          "type": "uint256"
        }
      ],
      "name": "employeesAddress",
      "outputs": [
        {
          "internalType": "address",
          "name": "",
          "type": "address"
        }
      ],
      "stateMutability": "view",
      "type": "function",
      "constant": true
    },
    {
      "inputs": [
        {
          "internalType": "address",
          "name": "_employeeAddress",
          "type": "address"
        },
        {
          "internalType": "string",
          "name": "_name",
          "type": "string"
        },
        {
          "internalType": "uint256",
          "name": "_allowedDistance",
          "type": "uint256"
        },
        {
          "internalType": "uint256",
          "name": "_contractEnd",
          "type": "uint256"
        },
        {
          "internalType": "int256",
          "name": "_lat",
          "type": "int256"
        },
        {
          "internalType": "int256",
          "name": "_lng",
          "type": "int256"
        }
      ],
      "name": "addEmployee",
      "outputs": [],
      "stateMutability": "nonpayable",
      "type": "function"
    },
    {
      "inputs": [
        {
          "internalType": "uint256",
          "name": "index",
          "type": "uint256"
        }
      ],
      "name": "getEmployee",
      "outputs": [
        {
          "components": [
            {
              "internalType": "string",
              "name": "name",
              "type": "string"
            },
            {
              "internalType": "uint256",
              "name": "distance",
              "type": "uint256"
            },
            {
              "internalType": "uint256",
              "name": "registeredAt",
              "type": "uint256"
            },
            {
              "internalType": "uint256",
              "name": "contractEnd",
              "type": "uint256"
            },
            {
              "internalType": "int256",
              "name": "lat",
              "type": "int256"
            },
            {
              "internalType": "int256",
              "name": "lng",
              "type": "int256"
            },
            {
              "internalType": "bool",
              "name": "comply",
              "type": "bool"
            },
            {
              "internalType": "bool",
              "name": "paid",
              "type": "bool"
            }
          ],
          "internalType": "struct PayByLocation.Employee",
          "name": "",
          "type": "tuple"
        }
      ],
      "stateMutability": "view",
      "type": "function",
      "constant": true
    },
    {
      "inputs": [],
      "name": "getEmployees",
      "outputs": [
        {
          "components": [
            {
              "internalType": "string",
              "name": "name",
              "type": "string"
            },
            {
              "internalType": "uint256",
              "name": "distance",
              "type": "uint256"
            },
            {
              "internalType": "uint256",
              "name": "registeredAt",
              "type": "uint256"
            },
            {
              "internalType": "uint256",
              "name": "contractEnd",
              "type": "uint256"
            },
            {
              "internalType": "int256",
              "name": "lat",
              "type": "int256"
            },
            {
              "internalType": "int256",
              "name": "lng",
              "type": "int256"
            },
            {
              "internalType": "bool",
              "name": "comply",
              "type": "bool"
            },
            {
              "internalType": "bool",
              "name": "paid",
              "type": "bool"
            }
          ],
          "internalType": "struct PayByLocation.Employee[]",
          "name": "",
          "type": "tuple[]"
        }
      ],
      "stateMutability": "view",
      "type": "function",
      "constant": true
    },
    {
      "inputs": [
        {
          "internalType": "int256",
          "name": "_lat",
          "type": "int256"
        },
        {
          "internalType": "int256",
          "name": "_lng",
          "type": "int256"
        }
      ],
      "name": "evaluate",
      "outputs": [],
      "stateMutability": "nonpayable",
      "type": "function"
    },
    {
      "inputs": [],
      "name": "getSender",
      "outputs": [
        {
          "internalType": "address",
          "name": "",
          "type": "address"
        }
      ],
      "stateMutability": "view",
      "type": "function",
      "constant": true
    }
  ],
  "bytecode": "0x608060405234801561001057600080fd5b506119f2806100206000396000f3fe608060405234801561001057600080fd5b506004361061007d5760003560e01c80635e01eb5a1161005b5780635e01eb5a146100ec578063bca9a5c51461010a578063d06789471461013a578063f8bb49a1146101715761007d565b80631abb590b146100825780631f35dba71461009e5780634abefa36146100ce575b600080fd5b61009c60048036038101906100979190610dc9565b61018d565b005b6100b860048036038101906100b39190610e72565b61031d565b6040516100c59190610eae565b60405180910390f35b6100d6610350565b6040516100e391906110f3565b60405180910390f35b6100f4610569565b6040516101019190610eae565b60405180910390f35b610124600480360381019061011f9190610e72565b610571565b60405161013191906111c5565b60405180910390f35b610154600480360381019061014f91906111e7565b6106f7565b60405161016898979695949392919061128b565b60405180910390f35b61018b60048036038101906101869190611310565b6107e1565b005b6000610197610a79565b90506000604051806101000160405280888152602001878152602001838152602001868152602001858152602001848152602001600115158152602001600015158152509050806000808a73ffffffffffffffffffffffffffffffffffffffff1673ffffffffffffffffffffffffffffffffffffffff1681526020019081526020016000206000820151816000019081610231919061155c565b506020820151816001015560408201518160020155606082015181600301556080820151816004015560a0820151816005015560c08201518160060160006101000a81548160ff02191690831515021790555060e08201518160060160016101000a81548160ff0219169083151502179055509050508760016000600254815260200190815260200160002060006101000a81548173ffffffffffffffffffffffffffffffffffffffff021916908373ffffffffffffffffffffffffffffffffffffffff1602179055506002600081548092919061030e9061165d565b91905055505050505050505050565b60016020528060005260406000206000915054906101000a900473ffffffffffffffffffffffffffffffffffffffff1681565b6060600060025467ffffffffffffffff8111156103705761036f610c32565b5b6040519080825280602002602001820160405280156103a957816020015b610396610b5c565b81526020019060019003908161038e5790505b50905060005b600254811015610561576000806001600084815260200190815260200160002060009054906101000a900473ffffffffffffffffffffffffffffffffffffffff1673ffffffffffffffffffffffffffffffffffffffff1673ffffffffffffffffffffffffffffffffffffffff168152602001908152602001600020604051806101000160405290816000820180546104469061137f565b80601f01602080910402602001604051908101604052809291908181526020018280546104729061137f565b80156104bf5780601f10610494576101008083540402835291602001916104bf565b820191906000526020600020905b8154815290600101906020018083116104a257829003601f168201915b5050505050815260200160018201548152602001600282015481526020016003820154815260200160048201548152602001600582015481526020016006820160009054906101000a900460ff161515151581526020016006820160019054906101000a900460ff161515151581525050828281518110610543576105426116a5565b5b602002602001018190525080806105599061165d565b9150506103af565b508091505090565b600033905090565b610579610b5c565b6000806001600085815260200190815260200160002060009054906101000a900473ffffffffffffffffffffffffffffffffffffffff1673ffffffffffffffffffffffffffffffffffffffff1673ffffffffffffffffffffffffffffffffffffffff168152602001908152602001600020604051806101000160405290816000820180546106069061137f565b80601f01602080910402602001604051908101604052809291908181526020018280546106329061137f565b801561067f5780601f106106545761010080835404028352916020019161067f565b820191906000526020600020905b81548152906001019060200180831161066257829003601f168201915b5050505050815260200160018201548152602001600282015481526020016003820154815260200160048201548152602001600582015481526020016006820160009054906101000a900460ff161515151581526020016006820160019054906101000a900460ff1615151515815250509050919050565b600060205280600052604060002060009150905080600001805461071a9061137f565b80601f01602080910402602001604051908101604052809291908181526020018280546107469061137f565b80156107935780601f1061076857610100808354040283529160200191610793565b820191906000526020600020905b81548152906001019060200180831161077657829003601f168201915b5050505050908060010154908060020154908060030154908060040154908060050154908060060160009054906101000a900460ff16908060060160019054906101000a900460ff16905088565b600033905060008060008373ffffffffffffffffffffffffffffffffffffffff1673ffffffffffffffffffffffffffffffffffffffff168152602001908152602001600020604051806101000160405290816000820180546108429061137f565b80601f016020809104026020016040519081016040528092919081815260200182805461086e9061137f565b80156108bb5780601f10610890576101008083540402835291602001916108bb565b820191906000526020600020905b81548152906001019060200180831161089e57829003601f168201915b5050505050815260200160018201548152602001600282015481526020016003820154815260200160048201548152602001600582015481526020016006820160009054906101000a900460ff161515151581526020016006820160019054906101000a900460ff1615151515815250509050600061093b858584610a81565b9050808260c001901515908115158152505080801561097357508160600151610962610a79565b1015801561097257508160e00151155b5b1561098e5760018260e00190151590811515815250506109a8565b801580156109a6575081606001516109a4610a79565b105b505b816000808573ffffffffffffffffffffffffffffffffffffffff1673ffffffffffffffffffffffffffffffffffffffff16815260200190815260200160002060008201518160000190816109fc919061155c565b506020820151816001015560408201518160020155606082015181600301556080820151816004015560a0820151816005015560c08201518160060160006101000a81548160ff02191690831515021790555060e08201518160060160016101000a81548160ff0219169083151502179055509050505050505050565b600042905090565b600080610a98858585608001518660a00151610aac565b905082602001518113159150509392505050565b600080610af160028487610ac091906116d4565b610aca9190611873565b60028689610ad891906116d4565b610ae29190611873565b610aec91906118df565b610aff565b905080915050949350505050565b6000806002600184610b1191906118df565b610b1b9190611952565b90508291505b81811215610b56578091506002818285610b3b9190611952565b610b4591906118df565b610b4f9190611952565b9050610b21565b50919050565b6040518061010001604052806060815260200160008152602001600081526020016000815260200160008152602001600081526020016000151581526020016000151581525090565b6000604051905090565b600080fd5b600080fd5b600073ffffffffffffffffffffffffffffffffffffffff82169050919050565b6000610be482610bb9565b9050919050565b610bf481610bd9565b8114610bff57600080fd5b50565b600081359050610c1181610beb565b92915050565b600080fd5b600080fd5b6000601f19601f8301169050919050565b7f4e487b7100000000000000000000000000000000000000000000000000000000600052604160045260246000fd5b610c6a82610c21565b810181811067ffffffffffffffff82111715610c8957610c88610c32565b5b80604052505050565b6000610c9c610ba5565b9050610ca88282610c61565b919050565b600067ffffffffffffffff821115610cc857610cc7610c32565b5b610cd182610c21565b9050602081019050919050565b82818337600083830152505050565b6000610d00610cfb84610cad565b610c92565b905082815260208101848484011115610d1c57610d1b610c1c565b5b610d27848285610cde565b509392505050565b600082601f830112610d4457610d43610c17565b5b8135610d54848260208601610ced565b91505092915050565b6000819050919050565b610d7081610d5d565b8114610d7b57600080fd5b50565b600081359050610d8d81610d67565b92915050565b6000819050919050565b610da681610d93565b8114610db157600080fd5b50565b600081359050610dc381610d9d565b92915050565b60008060008060008060c08789031215610de657610de5610baf565b5b6000610df489828a01610c02565b965050602087013567ffffffffffffffff811115610e1557610e14610bb4565b5b610e2189828a01610d2f565b9550506040610e3289828a01610d7e565b9450506060610e4389828a01610d7e565b9350506080610e5489828a01610db4565b92505060a0610e6589828a01610db4565b9150509295509295509295565b600060208284031215610e8857610e87610baf565b5b6000610e9684828501610d7e565b91505092915050565b610ea881610bd9565b82525050565b6000602082019050610ec36000830184610e9f565b92915050565b600081519050919050565b600082825260208201905092915050565b6000819050602082019050919050565b600081519050919050565b600082825260208201905092915050565b60005b83811015610f2f578082015181840152602081019050610f14565b60008484015250505050565b6000610f4682610ef5565b610f508185610f00565b9350610f60818560208601610f11565b610f6981610c21565b840191505092915050565b610f7d81610d5d565b82525050565b610f8c81610d93565b82525050565b60008115159050919050565b610fa781610f92565b82525050565b6000610100830160008301518482036000860152610fcb8282610f3b565b9150506020830151610fe06020860182610f74565b506040830151610ff36040860182610f74565b5060608301516110066060860182610f74565b5060808301516110196080860182610f83565b5060a083015161102c60a0860182610f83565b5060c083015161103f60c0860182610f9e565b5060e083015161105260e0860182610f9e565b508091505092915050565b60006110698383610fad565b905092915050565b6000602082019050919050565b600061108982610ec9565b6110938185610ed4565b9350836020820285016110a585610ee5565b8060005b858110156110e157848403895281516110c2858261105d565b94506110cd83611071565b925060208a019950506001810190506110a9565b50829750879550505050505092915050565b6000602082019050818103600083015261110d818461107e565b905092915050565b60006101008301600083015184820360008601526111338282610f3b565b91505060208301516111486020860182610f74565b50604083015161115b6040860182610f74565b50606083015161116e6060860182610f74565b5060808301516111816080860182610f83565b5060a083015161119460a0860182610f83565b5060c08301516111a760c0860182610f9e565b5060e08301516111ba60e0860182610f9e565b508091505092915050565b600060208201905081810360008301526111df8184611115565b905092915050565b6000602082840312156111fd576111fc610baf565b5b600061120b84828501610c02565b91505092915050565b600082825260208201905092915050565b600061123082610ef5565b61123a8185611214565b935061124a818560208601610f11565b61125381610c21565b840191505092915050565b61126781610d5d565b82525050565b61127681610d93565b82525050565b61128581610f92565b82525050565b60006101008201905081810360008301526112a6818b611225565b90506112b5602083018a61125e565b6112c2604083018961125e565b6112cf606083018861125e565b6112dc608083018761126d565b6112e960a083018661126d565b6112f660c083018561127c565b61130360e083018461127c565b9998505050505050505050565b6000806040838503121561132757611326610baf565b5b600061133585828601610db4565b925050602061134685828601610db4565b9150509250929050565b7f4e487b7100000000000000000000000000000000000000000000000000000000600052602260045260246000fd5b6000600282049050600182168061139757607f821691505b6020821081036113aa576113a9611350565b5b50919050565b60008190508160005260206000209050919050565b60006020601f8301049050919050565b600082821b905092915050565b6000600883026114127fffffffffffffffffffffffffffffffffffffffffffffffffffffffffffffffff826113d5565b61141c86836113d5565b95508019841693508086168417925050509392505050565b6000819050919050565b600061145961145461144f84610d5d565b611434565b610d5d565b9050919050565b6000819050919050565b6114738361143e565b61148761147f82611460565b8484546113e2565b825550505050565b600090565b61149c61148f565b6114a781848461146a565b505050565b5b818110156114cb576114c0600082611494565b6001810190506114ad565b5050565b601f821115611510576114e1816113b0565b6114ea846113c5565b810160208510156114f9578190505b61150d611505856113c5565b8301826114ac565b50505b505050565b600082821c905092915050565b600061153360001984600802611515565b1980831691505092915050565b600061154c8383611522565b9150826002028217905092915050565b61156582610ef5565b67ffffffffffffffff81111561157e5761157d610c32565b5b611588825461137f565b6115938282856114cf565b600060209050601f8311600181146115c657600084156115b4578287015190505b6115be8582611540565b865550611626565b601f1984166115d4866113b0565b60005b828110156115fc578489015182556001820191506020850194506020810190506115d7565b868310156116195784890151611615601f891682611522565b8355505b6001600288020188555050505b505050505050565b7f4e487b7100000000000000000000000000000000000000000000000000000000600052601160045260246000fd5b600061166882610d5d565b91507fffffffffffffffffffffffffffffffffffffffffffffffffffffffffffffffff820361169a5761169961162e565b5b600182019050919050565b7f4e487b7100000000000000000000000000000000000000000000000000000000600052603260045260246000fd5b60006116df82610d93565b91506116ea83610d93565b92508282039050818112600084121682821360008512151617156117115761171061162e565b5b92915050565b60008160011c9050919050565b6000808291508390505b600185111561176e5780860481111561174a5761174961162e565b5b60018516156117595780820291505b808102905061176785611717565b945061172e565b94509492505050565b6000826000811461178f5760018114611799576117a2565b600191505061185e565b8291505061185e565b50816117b1576000905061185e565b6001905060008213600181146117ce57600081146117e6576117fa565b8286048311156117e1576117e061162e565b5b6117fa565b8286058312156117f9576117f861162e565b5b5b506001831615611808578190505b818202915061181683611717565b925061182485848484611724565b9250905081850481116000821316156118405761183f61162e565b5b81840581126000821216156118585761185761162e565b5b81810290505b949350505050565b600060ff82169050919050565b600061187e82610d93565b915061188983611866565b92506118d77f7fffffffffffffffffffffffffffffffffffffffffffffffffffffffffffffff7f80000000000000000000000000000000000000000000000000000000000000008585611777565b905092915050565b60006118ea82610d93565b91506118f583610d93565b92508282019050828112156000831216838212600084121516171561191d5761191c61162e565b5b92915050565b7f4e487b7100000000000000000000000000000000000000000000000000000000600052601260045260246000fd5b600061195d82610d93565b915061196883610d93565b92508261197857611977611923565b5b600160000383147f8000000000000000000000000000000000000000000000000000000000000000831416156119b1576119b061162e565b5b82820590509291505056fea2646970667358221220460ad79d7661674f9a0e1b955e5eac187d58f0bf25b98719b15c4d6bca7b0cb364736f6c63430008110033",
  "immutableReferences": {},
  "source": "// SPDX-License-Identifier: MIT\r\npragma solidity >=0.4.22 <0.9.0;\r\n\r\ncontract PayByLocation {\r\n \r\n        struct Employee {\r\n        string name;\r\n        uint256 distance;\r\n        uint256 registeredAt;\r\n        uint256 contractEnd;\r\n        int256 lat;\r\n        int256 lng;\r\n        bool comply;\r\n        bool paid;\r\n    }\r\n    \r\n    mapping(address => Employee) public employees;\r\n    mapping(uint => address) public employeesAddress;\r\n    uint employeeCount;\r\n\r\n    function addEmployee(\r\n        address _employeeAddress,\r\n        string memory _name,\r\n        uint256 _allowedDistance,\r\n        uint256 _contractEnd,\r\n        int256 _lat,\r\n        int256 _lng\r\n    ) public  {\r\n        uint256 time = timeteller();\r\n        Employee memory employee = Employee(\r\n            _name,\r\n            _allowedDistance,\r\n            time,\r\n            _contractEnd,\r\n            _lat,\r\n            _lng,\r\n            true,\r\n            false\r\n        );\r\n        employees[_employeeAddress] = employee;\r\n        employeesAddress[employeeCount] = _employeeAddress;\r\n        employeeCount++;\r\n\r\n    }\r\n\r\n    function getEmployee(uint index)\r\n        public\r\n        view\r\n        returns (Employee memory)\r\n    {\r\n        return (employees[employeesAddress[index]]);\r\n    }\r\n\r\n    function getEmployees()\r\n        public\r\n        view\r\n        returns (Employee[] memory)\r\n    {\r\n\r\n        Employee[] memory ret = new Employee[](employeeCount);\r\n        for (uint i = 0; i < employeeCount; i++) {\r\n            ret[i] = employees[employeesAddress[i]];\r\n        }\r\n        return ret;\r\n    \r\n    }\r\n    \r\n    function evaluate(int256 _lat, int256 _lng) public   {\r\n        //refrence distance is lat and lng from the constructors\r\n        address empAddr = msg.sender;\r\n        Employee memory employee = employees[empAddr];\r\n        bool comply = isComplied(_lat, _lng, employee);\r\n        employee.comply = comply; \r\n        \r\n        if (comply && (timeteller() >= employee.contractEnd && !employee.paid)) {\r\n        \r\n            //pay the user\r\n            employee.paid = true;\r\n        \r\n        } else if (!comply && (timeteller() < employee.contractEnd)) {\r\n        \r\n            // refund employer\r\n\r\n        }\r\n\r\n        employees[empAddr] = employee;\r\n\r\n    }\r\n\r\n    function getDistance(\r\n        int256 _lat,\r\n        int256 _lng,\r\n        int256 _lat1,\r\n        int256 _lng1\r\n    ) private pure returns (int256 ) {\r\n        int256 dist = sqrt(((_lat - _lat1)**2) + ((_lng - _lng1)**2));\r\n        return dist;\r\n        // return 6;\r\n    }\r\n\r\n    function sqrt(int256 x) private pure returns (int256 y) {\r\n        int256 z = (x + 1) / 2;\r\n        y = x;\r\n        while (z <(y)) {\r\n            y = z;\r\n            z = (x / z + z) / 2;\r\n        }\r\n        return y;\r\n    }\r\n\r\n    function isComplied(\r\n        int256 _lat,\r\n        int256 _lng,\r\n        Employee memory _employee\r\n    ) private pure returns (bool) {\r\n        int256 distance = getDistance(\r\n            _lat,\r\n            _lng,\r\n            _employee.lat,\r\n            _employee.lng\r\n        );\r\n        return distance <= int(_employee.distance);\r\n    }\r\n\r\n    function getSender() public view returns (address) {\r\n        return msg.sender;\r\n    }\r\n\r\n    function timeteller() private view returns(uint){\r\n     return block.timestamp;\r\n }\r\n    \r\n}\r\n",
  "sourcePath": "D:\\Projects\\Personal\\python\\10 Academy\\Week 10\\contracts\\PayByLocation.sol",
  "compiler": {
    "name": "solc",
    "version": "0.8.17+commit.8df45f5f.Emscripten.clang"
  },
  "schemaVersion": "3.4.10",
  "updatedAt": "2022-10-29T13:31:13.169Z",
  "networkType": "ethereum",
  "devdoc": {
    "kind": "dev",
    "methods": {},
    "version": 1
  },
  "userdoc": {
    "kind": "user",
    "methods": {},
    "version": 1
  }
}