{
  "contractName": "PayByLocation",
  "abi": [
    {
      "inputs": [
        {
          "internalType": "address",
          "name": "",
          "type": "address"
        }
      ],
      "name": "employees",
      "outputs": [
        {
          "internalType": "string",
          "name": "name",
          "type": "string"
        },
        {
          "internalType": "uint256",
          "name": "distance",
          "type": "uint256"
        },
        {
          "internalType": "int256",
          "name": "lat",
          "type": "int256"
        },
        {
          "internalType": "int256",
          "name": "lng",
          "type": "int256"
        },
        {
          "internalType": "bool",
          "name": "comply",
          "type": "bool"
        }
      ],
      "stateMutability": "view",
      "type": "function",
      "constant": true
    },
    {
      "inputs": [
        {
          "internalType": "uint256",
          "name": "",
          "type": "uint256"
        }
      ],
      "name": "employeesAddress",
      "outputs": [
        {
          "internalType": "address",
          "name": "",
          "type": "address"
        }
      ],
      "stateMutability": "view",
      "type": "function",
      "constant": true
    },
    {
      "inputs": [
        {
          "internalType": "address",
          "name": "_employeeAddress",
          "type": "address"
        },
        {
          "internalType": "string",
          "name": "_name",
          "type": "string"
        },
        {
          "internalType": "uint256",
          "name": "_allowedDistance",
          "type": "uint256"
        },
        {
          "internalType": "int256",
          "name": "_lat",
          "type": "int256"
        },
        {
          "internalType": "int256",
          "name": "_lng",
          "type": "int256"
        }
      ],
      "name": "addEmployee",
      "outputs": [],
      "stateMutability": "nonpayable",
      "type": "function"
    },
    {
      "inputs": [
        {
          "internalType": "address",
          "name": "empAddress",
          "type": "address"
        }
      ],
      "name": "getEmployee",
      "outputs": [
        {
          "components": [
            {
              "internalType": "string",
              "name": "name",
              "type": "string"
            },
            {
              "internalType": "uint256",
              "name": "distance",
              "type": "uint256"
            },
            {
              "internalType": "int256",
              "name": "lat",
              "type": "int256"
            },
            {
              "internalType": "int256",
              "name": "lng",
              "type": "int256"
            },
            {
              "internalType": "bool",
              "name": "comply",
              "type": "bool"
            }
          ],
          "internalType": "struct PayByLocation.Employee",
          "name": "",
          "type": "tuple"
        }
      ],
      "stateMutability": "view",
      "type": "function",
      "constant": true
    },
    {
      "inputs": [],
      "name": "getEmployees",
      "outputs": [
        {
          "components": [
            {
              "internalType": "string",
              "name": "name",
              "type": "string"
            },
            {
              "internalType": "uint256",
              "name": "distance",
              "type": "uint256"
            },
            {
              "internalType": "int256",
              "name": "lat",
              "type": "int256"
            },
            {
              "internalType": "int256",
              "name": "lng",
              "type": "int256"
            },
            {
              "internalType": "bool",
              "name": "comply",
              "type": "bool"
            }
          ],
          "internalType": "struct PayByLocation.Employee[]",
          "name": "",
          "type": "tuple[]"
        }
      ],
      "stateMutability": "view",
      "type": "function",
      "constant": true
    },
    {
      "inputs": [
        {
          "internalType": "int256",
          "name": "_lat",
          "type": "int256"
        },
        {
          "internalType": "int256",
          "name": "_lng",
          "type": "int256"
        }
      ],
      "name": "evaluate",
      "outputs": [],
      "stateMutability": "nonpayable",
      "type": "function"
    },
    {
      "inputs": [],
      "name": "getSender",
      "outputs": [
        {
          "internalType": "address",
          "name": "",
          "type": "address"
        }
      ],
      "stateMutability": "view",
      "type": "function",
      "constant": true
    }
  ],
  "bytecode": "0x608060405234801561001057600080fd5b50611644806100206000396000f3fe608060405234801561001057600080fd5b506004361061007d5760003560e01c80634abefa361161005b5780634abefa36146100fe5780635e01eb5a1461011c578063d06789471461013a578063f8bb49a11461016e5761007d565b80630b9bf0b1146100825780631f35dba71461009e57806332648e09146100ce575b600080fd5b61009c60048036038101906100979190610acc565b61018a565b005b6100b860048036038101906100b39190610b63565b6102c2565b6040516100c59190610b9f565b60405180910390f35b6100e860048036038101906100e39190610bba565b6102f5565b6040516100f59190610d15565b60405180910390f35b610106610418565b6040516101139190610e6f565b60405180910390f35b610124610601565b6040516101319190610b9f565b60405180910390f35b610154600480360381019061014f9190610bba565b610609565b604051610165959493929190610f08565b60405180910390f35b61018860048036038101906101839190610f62565b6106d4565b005b60006040518060a00160405280868152602001858152602001848152602001838152602001600115158152509050806000808873ffffffffffffffffffffffffffffffffffffffff1673ffffffffffffffffffffffffffffffffffffffff168152602001908152602001600020600082015181600001908161020c91906111ae565b5060208201518160010155604082015181600201556060820151816003015560808201518160040160006101000a81548160ff0219169083151502179055509050508560016000600254815260200190815260200160002060006101000a81548173ffffffffffffffffffffffffffffffffffffffff021916908373ffffffffffffffffffffffffffffffffffffffff160217905550600260008154809291906102b5906112af565b9190505550505050505050565b60016020528060005260406000206000915054906101000a900473ffffffffffffffffffffffffffffffffffffffff1681565b6102fd610877565b6000808373ffffffffffffffffffffffffffffffffffffffff1673ffffffffffffffffffffffffffffffffffffffff1681526020019081526020016000206040518060a001604052908160008201805461035690610fd1565b80601f016020809104026020016040519081016040528092919081815260200182805461038290610fd1565b80156103cf5780601f106103a4576101008083540402835291602001916103cf565b820191906000526020600020905b8154815290600101906020018083116103b257829003601f168201915b505050505081526020016001820154815260200160028201548152602001600382015481526020016004820160009054906101000a900460ff1615151515815250509050919050565b6060600060025467ffffffffffffffff81111561043857610437610935565b5b60405190808252806020026020018201604052801561047157816020015b61045e610877565b8152602001906001900390816104565790505b50905060005b6002548110156105f9576000806001600084815260200190815260200160002060009054906101000a900473ffffffffffffffffffffffffffffffffffffffff1673ffffffffffffffffffffffffffffffffffffffff1673ffffffffffffffffffffffffffffffffffffffff1681526020019081526020016000206040518060a001604052908160008201805461050d90610fd1565b80601f016020809104026020016040519081016040528092919081815260200182805461053990610fd1565b80156105865780601f1061055b57610100808354040283529160200191610586565b820191906000526020600020905b81548152906001019060200180831161056957829003601f168201915b505050505081526020016001820154815260200160028201548152602001600382015481526020016004820160009054906101000a900460ff1615151515815250508282815181106105db576105da6112f7565b5b602002602001018190525080806105f1906112af565b915050610477565b508091505090565b600033905090565b600060205280600052604060002060009150905080600001805461062c90610fd1565b80601f016020809104026020016040519081016040528092919081815260200182805461065890610fd1565b80156106a55780601f1061067a576101008083540402835291602001916106a5565b820191906000526020600020905b81548152906001019060200180831161068857829003601f168201915b5050505050908060010154908060020154908060030154908060040160009054906101000a900460ff16905085565b600033905060006106e4826102f5565b90506106f184848361079c565b816080019015159081151581525050806000808473ffffffffffffffffffffffffffffffffffffffff1673ffffffffffffffffffffffffffffffffffffffff168152602001908152602001600020600082015181600001908161075491906111ae565b5060208201518160010155604082015181600201556060820151816003015560808201518160040160006101000a81548160ff02191690831515021790555090505050505050565b6000806107b38585856040015186606001516107c7565b905082602001518113159150509392505050565b60008061080c600284876107db9190611326565b6107e591906114c5565b600286896107f39190611326565b6107fd91906114c5565b6108079190611531565b61081a565b905080915050949350505050565b600080600260018461082c9190611531565b61083691906115a4565b90508291505b8181121561087157809150600281828561085691906115a4565b6108609190611531565b61086a91906115a4565b905061083c565b50919050565b6040518060a00160405280606081526020016000815260200160008152602001600081526020016000151581525090565b6000604051905090565b600080fd5b600080fd5b600073ffffffffffffffffffffffffffffffffffffffff82169050919050565b60006108e7826108bc565b9050919050565b6108f7816108dc565b811461090257600080fd5b50565b600081359050610914816108ee565b92915050565b600080fd5b600080fd5b6000601f19601f8301169050919050565b7f4e487b7100000000000000000000000000000000000000000000000000000000600052604160045260246000fd5b61096d82610924565b810181811067ffffffffffffffff8211171561098c5761098b610935565b5b80604052505050565b600061099f6108a8565b90506109ab8282610964565b919050565b600067ffffffffffffffff8211156109cb576109ca610935565b5b6109d482610924565b9050602081019050919050565b82818337600083830152505050565b6000610a036109fe846109b0565b610995565b905082815260208101848484011115610a1f57610a1e61091f565b5b610a2a8482856109e1565b509392505050565b600082601f830112610a4757610a4661091a565b5b8135610a578482602086016109f0565b91505092915050565b6000819050919050565b610a7381610a60565b8114610a7e57600080fd5b50565b600081359050610a9081610a6a565b92915050565b6000819050919050565b610aa981610a96565b8114610ab457600080fd5b50565b600081359050610ac681610aa0565b92915050565b600080600080600060a08688031215610ae857610ae76108b2565b5b6000610af688828901610905565b955050602086013567ffffffffffffffff811115610b1757610b166108b7565b5b610b2388828901610a32565b9450506040610b3488828901610a81565b9350506060610b4588828901610ab7565b9250506080610b5688828901610ab7565b9150509295509295909350565b600060208284031215610b7957610b786108b2565b5b6000610b8784828501610a81565b91505092915050565b610b99816108dc565b82525050565b6000602082019050610bb46000830184610b90565b92915050565b600060208284031215610bd057610bcf6108b2565b5b6000610bde84828501610905565b91505092915050565b600081519050919050565b600082825260208201905092915050565b60005b83811015610c21578082015181840152602081019050610c06565b60008484015250505050565b6000610c3882610be7565b610c428185610bf2565b9350610c52818560208601610c03565b610c5b81610924565b840191505092915050565b610c6f81610a60565b82525050565b610c7e81610a96565b82525050565b60008115159050919050565b610c9981610c84565b82525050565b600060a0830160008301518482036000860152610cbc8282610c2d565b9150506020830151610cd16020860182610c66565b506040830151610ce46040860182610c75565b506060830151610cf76060860182610c75565b506080830151610d0a6080860182610c90565b508091505092915050565b60006020820190508181036000830152610d2f8184610c9f565b905092915050565b600081519050919050565b600082825260208201905092915050565b6000819050602082019050919050565b600060a0830160008301518482036000860152610d808282610c2d565b9150506020830151610d956020860182610c66565b506040830151610da86040860182610c75565b506060830151610dbb6060860182610c75565b506080830151610dce6080860182610c90565b508091505092915050565b6000610de58383610d63565b905092915050565b6000602082019050919050565b6000610e0582610d37565b610e0f8185610d42565b935083602082028501610e2185610d53565b8060005b85811015610e5d5784840389528151610e3e8582610dd9565b9450610e4983610ded565b925060208a01995050600181019050610e25565b50829750879550505050505092915050565b60006020820190508181036000830152610e898184610dfa565b905092915050565b600082825260208201905092915050565b6000610ead82610be7565b610eb78185610e91565b9350610ec7818560208601610c03565b610ed081610924565b840191505092915050565b610ee481610a60565b82525050565b610ef381610a96565b82525050565b610f0281610c84565b82525050565b600060a0820190508181036000830152610f228188610ea2565b9050610f316020830187610edb565b610f3e6040830186610eea565b610f4b6060830185610eea565b610f586080830184610ef9565b9695505050505050565b60008060408385031215610f7957610f786108b2565b5b6000610f8785828601610ab7565b9250506020610f9885828601610ab7565b9150509250929050565b7f4e487b7100000000000000000000000000000000000000000000000000000000600052602260045260246000fd5b60006002820490506001821680610fe957607f821691505b602082108103610ffc57610ffb610fa2565b5b50919050565b60008190508160005260206000209050919050565b60006020601f8301049050919050565b600082821b905092915050565b6000600883026110647fffffffffffffffffffffffffffffffffffffffffffffffffffffffffffffffff82611027565b61106e8683611027565b95508019841693508086168417925050509392505050565b6000819050919050565b60006110ab6110a66110a184610a60565b611086565b610a60565b9050919050565b6000819050919050565b6110c583611090565b6110d96110d1826110b2565b848454611034565b825550505050565b600090565b6110ee6110e1565b6110f98184846110bc565b505050565b5b8181101561111d576111126000826110e6565b6001810190506110ff565b5050565b601f8211156111625761113381611002565b61113c84611017565b8101602085101561114b578190505b61115f61115785611017565b8301826110fe565b50505b505050565b600082821c905092915050565b600061118560001984600802611167565b1980831691505092915050565b600061119e8383611174565b9150826002028217905092915050565b6111b782610be7565b67ffffffffffffffff8111156111d0576111cf610935565b5b6111da8254610fd1565b6111e5828285611121565b600060209050601f8311600181146112185760008415611206578287015190505b6112108582611192565b865550611278565b601f19841661122686611002565b60005b8281101561124e57848901518255600182019150602085019450602081019050611229565b8683101561126b5784890151611267601f891682611174565b8355505b6001600288020188555050505b505050505050565b7f4e487b7100000000000000000000000000000000000000000000000000000000600052601160045260246000fd5b60006112ba82610a60565b91507fffffffffffffffffffffffffffffffffffffffffffffffffffffffffffffffff82036112ec576112eb611280565b5b600182019050919050565b7f4e487b7100000000000000000000000000000000000000000000000000000000600052603260045260246000fd5b600061133182610a96565b915061133c83610a96565b925082820390508181126000841216828213600085121516171561136357611362611280565b5b92915050565b60008160011c9050919050565b6000808291508390505b60018511156113c05780860481111561139c5761139b611280565b5b60018516156113ab5780820291505b80810290506113b985611369565b9450611380565b94509492505050565b600082600081146113e157600181146113eb576113f4565b60019150506114b0565b829150506114b0565b508161140357600090506114b0565b60019050600082136001811461142057600081146114385761144c565b82860483111561143357611432611280565b5b61144c565b82860583121561144b5761144a611280565b5b5b50600183161561145a578190505b818202915061146883611369565b925061147685848484611376565b92509050818504811160008213161561149257611491611280565b5b81840581126000821216156114aa576114a9611280565b5b81810290505b949350505050565b600060ff82169050919050565b60006114d082610a96565b91506114db836114b8565b92506115297f7fffffffffffffffffffffffffffffffffffffffffffffffffffffffffffffff7f800000000000000000000000000000000000000000000000000000000000000085856113c9565b905092915050565b600061153c82610a96565b915061154783610a96565b92508282019050828112156000831216838212600084121516171561156f5761156e611280565b5b92915050565b7f4e487b7100000000000000000000000000000000000000000000000000000000600052601260045260246000fd5b60006115af82610a96565b91506115ba83610a96565b9250826115ca576115c9611575565b5b600160000383147f80000000000000000000000000000000000000000000000000000000000000008314161561160357611602611280565b5b82820590509291505056fea2646970667358221220cc6a29054cf4842571700c68e5a7920d0b1ae149835fa70c8937820f4323e30564736f6c63430008110033",
  "immutableReferences": {},
  "source": "// SPDX-License-Identifier: MIT\r\npragma solidity >=0.4.22 <0.9.0;\r\n\r\ncontract PayByLocation {\r\n \r\n        struct Employee {\r\n        string name;\r\n        uint256 distance;\r\n        int256 lat;\r\n        int256 lng;\r\n        bool comply;\r\n    }\r\n    \r\n    mapping(address => Employee) public employees;\r\n    mapping(uint => address) public employeesAddress;\r\n    uint employeeCount;\r\n\r\n    function addEmployee(\r\n        address _employeeAddress,\r\n        string memory _name,\r\n        uint256 _allowedDistance,\r\n        int256 _lat,\r\n        int256 _lng\r\n    ) public  {\r\n        Employee memory employee = Employee(\r\n            _name,\r\n            _allowedDistance,\r\n            _lat,\r\n            _lng,\r\n            true\r\n        );\r\n        employees[_employeeAddress] = employee;\r\n        employeesAddress[employeeCount] = _employeeAddress;\r\n        employeeCount++;\r\n\r\n    }\r\n\r\n    function getEmployee(address empAddress)\r\n        public\r\n        view\r\n        returns (Employee memory)\r\n    {\r\n        return (employees[empAddress]);\r\n    }\r\n    \r\n    function getEmployees()\r\n        public\r\n        view\r\n        returns (Employee[] memory)\r\n    {\r\n\r\n        Employee[] memory ret = new Employee[](employeeCount);\r\n        for (uint i = 0; i < employeeCount; i++) {\r\n            ret[i] = employees[employeesAddress[i]];\r\n        }\r\n        return ret;\r\n    \r\n    }\r\n    \r\n    function evaluate(int256 _lat, int256 _lng) public   {\r\n        //refrence distance is lat and lng from the constructors\r\n        address empAddr = msg.sender;\r\n        Employee memory employee = getEmployee((empAddr));\r\n        employee.comply = isComplied(_lat, _lng, employee);\r\n        employees[empAddr] = employee;\r\n\r\n    }\r\n\r\n    function getDistance(\r\n        int256 _lat,\r\n        int256 _lng,\r\n        int256 _lat1,\r\n        int256 _lng1\r\n    ) private pure returns (int256 ) {\r\n        int256 dist = sqrt(((_lat - _lat1)**2) + ((_lng - _lng1)**2));\r\n        return dist;\r\n        // return 6;\r\n    }\r\n\r\n    function sqrt(int256 x) private pure returns (int256 y) {\r\n        int256 z = (x + 1) / 2;\r\n        y = x;\r\n        while (z <(y)) {\r\n            y = z;\r\n            z = (x / z + z) / 2;\r\n        }\r\n        return y;\r\n    }\r\n\r\n    function isComplied(\r\n        int256 _lat,\r\n        int256 _lng,\r\n        Employee memory _employee\r\n    ) private pure returns (bool) {\r\n        int256 distance = getDistance(\r\n            _lat,\r\n            _lng,\r\n            _employee.lat,\r\n            _employee.lng\r\n        );\r\n        return distance <= int(_employee.distance);\r\n    }\r\n\r\n    function getSender() public view returns (address) {\r\n        return msg.sender;\r\n    }\r\n    \r\n}\r\n",
  "sourcePath": "D:\\Projects\\Personal\\python\\10 Academy\\Week 10\\contracts\\PayByLocation.sol",
  "compiler": {
    "name": "solc",
    "version": "0.8.17+commit.8df45f5f.Emscripten.clang"
  },
  "schemaVersion": "3.4.10",
  "updatedAt": "2022-10-29T04:05:17.610Z",
  "networkType": "ethereum",
  "devdoc": {
    "kind": "dev",
    "methods": {},
    "version": 1
  },
  "userdoc": {
    "kind": "user",
    "methods": {},
    "version": 1
  }
}